:03000000020FEA02
:0C0FEA00787FE4F6D8FD75816A021031B2
:10163100BEE0C0EBCAC73A2564000D0A00726563BB
:1016410069766520646174613A006F70656E6163EB
:02165100640033
:10123A00014C00C1090130000246000001330001DF
:10124A004ADC02480000013200024D00000223007D
:10125A0000C10A013100014B0001250002410000D2
:06126A0001340001220026
:0E17C7007DFF7F801217E3E4FD7FA00217E391
:10173E00D3E53094C874809480400AE4F5301213D7
:06174E00B68E468F472213
:1013ED00D3E53394B4748094804029E4F533AF4A47
:1013FD0012177EAC4AE4120216E4FBFA794C7842DD
:10140D0012016FE4FBFA79C8784212006612024AA3
:05141D008E488F4922FA
:1011D500D3E5329464748094804059E4F5327F43BA
:1011E5001217697F43121769AC07E4120216E4FB74
:1011F500FA794C784212016FE4FBFA79C878421209
:10120500006612024A8E238F247F411217697F419F
:10121500121769AC07E4120216E4FBFA794C78421E
:1012250012016FE4FBFA79C8784212006612024A8D
:051235008E4D8F4E22DA
:10116C00D3E54B946474809480405DE4F54B7F85AB
:10117C00120026EFC4540F75F00AA4FFC0077F8538
:10118C00120026EF540FFED0E02EF5447F831200A0
:10119C0026EFC4540F75F00AA4FFC0077F8312001A
:1011AC0026EF540FFED0E02EF5457F81120026EF7E
:1011BC00C4540F75F00AA4FFC0077F81120026EFFC
:0911CC00540FFED0E02EF5432281
:10148B00D3E5259464748094804027E4F5251214E9
:10149B0057E4FBFA7920784112006612024A8E411A
:1014AB008F42E542B4520BE541B40306754100751A
:0314BB0042E622E4
:100F4900D3E534940F748094805003020FE9E4F5DB
:100F5900341217F0E515FB7A0064087011E54C248A
:100F690001FFE433FE7C007D061205BD8D4CEB6468
:100F7900014A7036FE7F0AFDFB7A0079261207F1D5
:100F89007552FF7553167554318546558547567BFD
:100F9900007A0079261208797B007A0079261215E1
:100FA900E97BFF7A16793B1215E9AF167E00EF64EB
:100FB900047008E54C64037002D20AAD157C00ED9B
:100FC900700CEF4E7008E54C64037002C20AE54CE0
:100FD9006404700CED64024C70067414254AF54AD9
:010FE90022E5
:100C8C00E54CFB7A00705C9017FD93F50990180603
:100C9C00E493F50AF50BF50CF50DAE41AF427C0073
:100CAC007D641205BD7C007D0A1205BD74FC2DF51A
:100CBC008274173CF583E493F50EAE41AF427C0091
:100CCC007D0A1205BD7C007D0A1205BD74FC2DF554
:100CDC008274173CF583E4934480F50FAE41AF4228
:100CEC00020E4BEB64014A7050E54475F00A8475B2
:100CFC00F00A84E5F09017FC93F509E54475F00AC9
:100D0C0084E5F093F50A750B40E54575F00A84759A
:100D1C00F00A84E5F093F50CE54575F00A84E5F0EE
:100D2C0093F50D750E40E54375F00A8475F00A8451
:100D3C00E5F093F50FE543803FAF4C7E00EF640286
:100D4C00703F9017FF93F509901806E493F50AF598
:100D5C000BF50CF50DE53175F0648475F00A84E53E
:100D6C00F09017FC93F50EE53175F00A8475F00AD6
:100D7C0084E5F093F50FE53175F00A84E5F0020F88
:100D8C0045EF64034E6003020E60901800200A5871
:100D9C0093F509901806E493F50AF50BF50CF50D8F
:100DAC00AE4DAF4E7C007D641205BD7C007D0A12F9
:100DBC0005BD74FC2DF58274173CF583E4934480D7
:100DCC00F50EAE4DAF4E7C007D0A1205BD7C007D4C
:100DDC000A1205BD74FC2DF58274173CF583E4935F
:100DEC00F50FAE4DAF4E8057E493F509901806E41D
:100DFC0093F50AF50BF50CF50DAE23AF247C007DB5
:100E0C00641205BD7C007D0A1205BD74FC2DF582B3
:100E1C0074173CF583E4934480F50EAE23AF247C29
:100E2C00007D0A1205BD7C007D0A1205BD74FC2DE7
:100E3C00F58274173CF583E493F50FAE23AF247C55
:100E4C00007D0A1205BD74FC2DF58274173CF583E8
:100E5C00E4020F45E54CFB7A006404706D901801B8
:100E6C0093F509901806E493F50AF50BF50CF50DBE
:100E7C00AE48AF497C007D641205BD7C007D0A1232
:100E8C0005BD74FC2DF58274173CF583E493448006
:100E9C00F50EAE48AF497C007D0A1205BD7C007D85
:100EAC000A1205BD74FC2DF58274173CF583E4938E
:100EBC00F50FAE48AF497C007D0A1205BD74FC2DC0
:100ECC00F58274173CF583E4806FEB64054A706C13
:100EDC0090180293F509901806E493F50AF50BF5B2
:100EEC000CF50DAE46AF477C007D641205BD7C0051
:100EFC007D0A1205BD74FC2DF58274173CF583E454
:100F0C0093F50EAE46AF477C007D0A1205BD7C0002
:100F1C007D0A1205BD74FC2DF58274173CF583E433
:100F2C0093F50FAE46AF477C007D0A1205BD74FCED
:0D0F3C002DF58274173CF583E493F5102227
:101101001217C71217A67B357D3B7F171212E3E436
:10111100FF1217548F310531AD31E4FF1217271239
:1011210017931216C612116C120C8C120F4912145D
:101131008B1211D51213ED12173E3009E8C2097B4B
:10114100FF7A16793E1215E97B007A00793512157E
:10115100E97BFF7A16793B1215E97E007F0C7D0051
:0B1161007B007A0079351207F180BA9C
:0300630002133451
:10133400C0E0C0F0C083C082C0D075D000C000C07F
:1013440001C002C003C004C005C006C0071214F0E7
:1013540005340525054B053205330530D007D00685
:10136400D005D004D003D002D001D000D0D0D08298
:07137400D083D0F0D0E0327D
:0300230002107652
:10107600C0E0C0F0C083C082C0D075D000C000C040
:0D10860001C002C003C004C005C006C007C1
:10109300309902C29930984BC298AF99BF6F0375CC
:1010A3002200AE22052274352EF8A60778357C007F
:1010B3007D007BFF7A16794B1207D4EF3395E04F0F
:1010C3007004F522D209C3E522940C748094804005
:1010D300127522007E007F0C7D007B007A0079353B
:0310E3001207F100
:1010E600D007D006D005D004D003D002D001D0005E
:0B10F600D0D0D082D083D0F0D0E03208
:1017A600438E0475D72075D6D1438E1043AF04D22D
:0217B600AF2260
:06180F0000007F24DFFE53
:0118150022B0
:0D17E3008D80E5A0541F4FF5A053A01F22DC
:0B17FC003F065B4F666D7D077F6F00AE
:0D1270000809000000000000000001080057
:1014F000E4FD7FC01217E374092508F8E6F4FD7FC8
:10150000E01217E3AF08A8077401088002C333D8BC
:0E151000FCFD7FC01217E3E508045407F50840
:01151E0022AA
:09127D000113000112000111002F
:10137B007FFF75B0F075C0FF20C4027F7020C202E2
:10138B007FB020B5027FD020B4027FE075B00FE4B0
:10139B00F5C020B30343070720B20343070B20B16B
:0A13AB000343070D20B00343070EB3
:0113B5002215
:0D17D50012137BEFF4FF65125FF5138F1206
:0117E20022E4
:1014BE00E4FF75B0F075C0FF20C4027F0420C202A5
:1014CE007F0820B5027F0C20B4027F1075B00FE4A8
:1014DE00F5C020B2010F20B1020F0F20B0030F0F85
:0114EE000FEE
:0114EF0022DA
:10151F00E4FE1214BEE51114600F14601A24027059
:10152F001BEF60187511018013EF6006FE75110235
:0E153F00800AE4F5118005EF7002F511AF0689
:01154D00227B
:091286000115000116000114001D
:0B17F000E5B0F4FF65165FF5158F16DD
:0117FB0022CB
:10129000E4FFE5B0540FFEE51414601014603C2424
:1012A00002703FEE640F603A75140122EEFD7C007F
:1012B000640F6023ED640770027F04ED640B4C70D3
:1012C000027F05ED640D4C70027F06ED640E4C70DC
:1012D000027F0775140222E4F51422EE640F7002F7
:0212E000F51403
:0112E20022E9
:041653007F057E0091
:10165700EF1FAA0670011E4A600FE4FDEDC3940C4C
:091667007480948050EA0D80F3B8
:011670002257
:02154E00A907EB
:10155000E4FBEBC39408748094805012C294E913A6
:101560009294121653D294E9C313F90B80E47F05C9
:051570007E0002165789
:10160E00E4FBEBC39408748094805014C294ECC332
:10161E0013FCD2943094034304801216530B80E2D1
:02162E00AF0407
:011630002297
:10157500C200D2947F0C7E00121657C2947F507E13
:1015850000121657D2947F0A7E00121657A2949223
:0615950000121653A20033
:01159B00222D
:101457001215757FCC12154E7F4412154E12157555
:101467007FCC12154E7FBE12154E12160EA907120B
:10147700160EEFAD01FCEC120211E4FBFA7980784D
:041487003D020066BC
:10168E00E4FEEEC3940874809480500FC297EF135B
:0B169E0092A3EFC313FFD2970E80E76A
:0116A900221E
:0316F90025F0FDDC
:1016FC00C29300C29700D2930012168EAF05121639
:04170C008EC29322D4
:10002600E4FDC29300C29700D2930012168EE4FF3D
:10003600EFC39408748094805011C297EDC313FDEA
:1000460030A303430580D2970F80E5C29300C29781
:0C00560000D29700C2A300D2A300AF05A7
:01006200227B
:1012E300AC07AA05E4FD7F8E1216FCEC75F00A84A8
:1012F300C454F0FFEC75F00A84EF7F841216F9EA08
:1013030075F00A84C454F0FFEA75F00A84EF7F8213
:101313001216F9EB75F00A84C454F0FFEB75F00A6A
:1013230084EF25F0FD7F801216FC7D807F8E0216F0
:01133300FCBD
:04171000D2A07F05DF
:10171400000000000000000000000000AE071FEE03
:0317240070EE2242
:0F17B800D2A1121710C2A17F05121714C2A022CE
:1016AA0012142212167C1215C3AD077F011216E11D
:0C16BA00C2A1121710D2A17F0502171464
:02142200AD0714
:10142400E4FCECC39408748094805024C2A07F052B
:10143400121714ED30E704D2A18002C2A17F051275
:101444001714D2A0ED25E0FD7F051217140C80D2ED
:02145400C2A034
:011456002273
:1015C300E4FCECC39408748094805017121710ED58
:1015D30025E0FD30A103430501C2A07F05121714C6
:0515E3000C80DFAF05E4
:0115E80022E0
:0B16710012142212167CAF0312142288
:10167C00121710A2A1E433FDC2A07F05121714AFFC
:01168C000558
:01168D00223A
:1016E100C2A0EF24FF92A17F05121714121710C296
:0816F100A0D2A17F050217142D
:10172700AB05AA071217B87FA012142212167CAFB6
:07173700021216710216BA3E
:02175400AB07E1
:101756001217B87FA01216711217B87FA11216AA17
:02176600AF05CD
:01176800225E
:02176900AB07CC
:10176B001217B87F901216711217B87F911216AA22
:02177B00AF05B8
:01177D002249
:10177E00AB071217B87F9012142212167C7F4012FC
:05178E0016710216BAFD
:10179300538E7F5389F0438901E4F58AF58CC28D1A
:0317A300C28C22D3
:10000300E4F551F551C3E551940874809480500E82
:0E001300D29012180FC29012180F055180E7FC
:0100210022BC
:1013B600E4F54FF550F58CF58AC28D120003D28CF8
:1013C600309103308DFAC28CC28DAF8CEFAD8AFCA2
:1013D600EC1202117B967A43798B783C12006612E6
:0613E600024A8E4F8F50F9
:0113EC0022DE
:081807008F993099FDC299226E
:1015E9008B4F8A508951AB4FAA50A951120565609A
:1015F900130551E5517002055014F9120565FF12E2
:05160900180780E22239
:1016C600759850438E40538EFE53890F758BE67581
:0B16D6008DFFC2ABD28ED2ACD2AF228F
:10006600EC4D6011E8497017ED33EC3304600DE494
:10007600FCFFFEFD22E933E8330470F80202B612F3
:10008600028158046009E4CC2481500628500902F4
:1000960002C02840030202BDC0E0EB4A7044B980AA
:1000A60006D0E0FB0202ACEF4E701CBD8008EBFFF1
:1000B600EAFEE9FD80EBE98DF0A4FEE5F002014FD2
:1000C600E9CDF9EAFEEBFFEF89F0A4FCE5F0CE8975
:1000D600F0A42EFFE435F0CD89F0A42DFEE435F032
:1000E6008067EF4E7005BD80D780C3EF8BF0A4AC60
:1000F600F0EE8BF0A42CFCE435F0F8EF8AF0A42C9B
:10010600E5F038FCE433CB8DF0A42CFCE5F03BF8AD
:10011600EE8AF0A42CFCE5F038F8E433CF89F0A49D
:100126002CFCE5F038CF3400CE89F0A42FFFE5F0A3
:100136003EFEE433C98DF0A42EFEE5F039CD8AF0FB
:10014600A42FFFE5F03EFEE43DFD33D0E0FB500773
:100156000BBB000F0202C0EC2CFCEF33FFEE33FEAC
:06016600ED33FD020298DA
:10016C000202C0EC5D046005E8590470030202B69B
:10017C00120281580460F6EC4860F2EC7004FDFE4B
:10018C00FF22C860DB2481C85009C3986002500666
:10019C000202BD9850CAF582E9294B4A7005AB8220
:1001AC000202AC75F0007C1A7880C3EF9BEE9AEDDE
:1001BC0099400DC3EF9BFFEE9AFEED99FDE842F0DE
:1001CC00DC23ACF0D0E0FFD0E0FED0E0FDAB822031
:1001DC00E7101BEB60BAEC2CFCEF33FFEE33FEEDBB
:1001EC0033FD020298E803F830E705C0F075F00023
:1001FC00EF2FFFEE33FEED33FD40B830E7C280AA9F
:10020C0075F020800E75F010800575F0087D007E6D
:10021C00007F003392D530D503120612EC33401018
:10022C00EF33FFEE33FEED33FDEC33FCD5F0ED2276
:0E023C00E5F0247EA2D513CC92E7CDCEFF22B2
:10024A00EDD2E7CD33EC3392D524814006E4FFFEAC
:10025A00FDFC22FCE4CFCECDCC24E0501174FF800B
:10026A00EDC3CC13CCCD13CDCE13CECF13CF0470A8
:07027A00F030D5DE02061290
:10081D00E5662452F8E6056622784F3007027852D5
:10082D00E475F0011206200205652000EB7F2ED243
:10083D00008018EF540F2490D43440D4FF30040BB3
:10084D00EF24BFB41A0050032461FFE56760021561
:10085D0067056AE56A7002056930070D784FE47522
:10086D00F001120620EF0205AB02159C7403D207AE
:10087D008003E4C207F5668B4F8A508951E4F56712
:10088D00F569F56AE56760077F2012085880F575F0
:10089D0068FFC201C200C202C203C205C206C2087D
:1008AD00120826FF700D3007057F00120869AF6A28
:1008BD00AE6922B4255FC2D5C204120826FF24D02A
:1008CD00B40A00501A75F00A786730D50508B6FFDE
:1008DD000106C6A426F620D5047002D20380D924C1
:1008ED00CFB41A00EF5004C2E5D204020B56D20168
:1008FD0080C6D20080C0D20280BCD2D580BAD205CB
:10090D0080B47F201208582002077401B56700409B
:10091D00F112081DFF120858020891D208D2068064
:10092D009512081DFB12081DFA12081DF94A4B708D
:10093D0006794D7A0C7BFF20022EE567602A7E003A
:10094D008E8275830012057E60060EEE656870F06E
:10095D00C2D5EBC0E0EAC0E0E9C0E0EE120BB6D0C4
:10096D00E0F9D0E0FAD0E0FB120565FF60AAEBC01C
:10097D00E0EAC0E0E9C0E0120858D0E02401F9D067
:10098D00E03400FAD0E0FBE5680460DCD568D9807E
:10099D0087D20280A2120B9960F7E56870010412EC
:1009AD0002CBA968600DE568600914F568120C406A
:1009BD00EF60F3EA30E702F404C3995077EAF425C7
:1009CD00680430E701E404F568800D120B9960C1ED
:1009DD00EA056825681202CBEA7865F630E701E48E
:1009ED00256804D5680420050114120BB6E4C0E097
:1009FD00120C407865E6601320E70714F6120840E4
:100A0D00802204F6D0E014C0E07F00120840E568B3
:100A1D0060071208371568800B300503120837D0B0
:100A2D00E0020891D0E00480C5120B9960A0E56842
:100A3D00041202CB7865EAF6E56820050260010430
:050A4D002404120BB6A9
:100A520074FF04C0E0120C40120840E56820050251
:100A62006003120837D0E0B568E87F4512084A787B
:100A720065E67F2B30E7047F2DF404C0E0120858AE
:100A8200D0E075F00A84C0F0120841D0E0120841AB
:100A9200020891791080027908C206C2088008D241
:100AA200D5790A8004790AC2D5E568047002F5682E
:100AB200E4FAFDFEFF12081DFC7B08200113120858
:100AC2001DFD7B1030000A12081DFE12081DFF7B5F
:100AD20020EC3382D592D55013C3E43000069FFF39
:100AE200E49EFEE42001039DFDE49CFCE4CBF8C2FD
:100AF20001EC700CCFCECDCCE824F8F870F380175F
:100B0200C3EF33FFEE33FEED33FDEC33FCEB33FB8F
:100B1200994002FB0FD8E9EB300105F8D0E0C44858
:100B2200B201C0E00AEC4D4E4F78207B0070C2EA61
:100B3200B5680040BCC0E0120BB8D0F0D0E0200194
:100B420004C4C0E0C4B201C0F0120841D0F0D5F034
:100B5200EB020891120630092E530A955808FF4CF1
:100B620008FB420A994F0AA1440AA1490914430AFF
:100B7200A75509D8460A364509A2470C6D50090304
:100B82002D09072E092A2B090B230928200C562A86
:100B920008C34800000922E568B4FF03756806121D
:100BA200081DFC12081DFD12081DFE12081DFF780B
:100BB2005E0202FA790AA2D5200314300509B9109F
:100BC200020404B9080104A2D5200602500104203F
:100BD20002689202B567005034C0E07F20300319EA
:100BE2007F30A20272067205500F120C0FC202C2AF
:100BF20006C205C2087F30800F300503E9C0E0124B
:100C02000858300503D0E0F9D0E0B567CC300517BD
:100C12007F30B9100C1208587F583004077F788053
:100C220003B908031208583002057F2D0208587FC5
:100C3200202008F87F2B2006F322920280CF7F002B
:100C4200B407005005245EF8E6FF22286E756C6C2E
:100C52002900D20112081D3001F8C201786730D58F
:100C62000108F60208C32D5043495812081D2403F7
:100C7200B405004001E4900C6893120849743A12DA
:0A0C82000849D203756704020A95C1
:10028100E9D2E7C933E833F892D5EDD2E7CD33ECC3
:0702910033FC5002B2D5223C
:10029800EC30E7100FBF000C0EBE00080DBD0004C7
:1002A8000BEB6014A2D5EB13FCED92E7FD2274FF73
:1002B800FCFDFEFF22E480F8A2D574FF13FC7D80CC
:0302C800E480EFE0
:1002CB00F920E72824F950037907E4F42402FB18FA
:1002DB00DBFDE624FB5014E9600DE4F618E604F6AA
:0F02EB00B40A08E4F6D9F57401F60A22C2D52246
:1002FA00ED33EC3392D5FA602AB4FF33EDC2E77BD3
:10030A00FF60067A03791FE4227A03792820D5044C
:10031A007A037923224E614E002B494E46002D491D
:10032A004E4600E47A08F608DAFC7B00740722E8F5
:10033A00C0E0ECC0E0EDC0E0EEC0E0EFC0E0EA757E
:10034A00F010A4CAABF075F04DA42BFBE435F0FC19
:10035A00EA2410FAEB34C5FBEC34D9FCEDC2E7FF12
:10036A0075F056A4F42411C5F0F434C58FF0A42A0C
:10037A00E5F03BE43CF620E714120525D0E0FFD077
:10038A00E0FED0E0FDD0E0FC12016F8014F404120C
:10039A000525D0E0FFD0E0FED0E0FDD0E0FC120061
:1003AA0066D0E0F8E6FAEDD2E7CD33EC332482FBEF
:1003BA00E4C3CF33CFCE33CECD33CD33DBF37B079C
:1003CA0075F00A846004F6081B0AE5F0F6088FF057
:1003DA00740AA4FFACF08EF0740AA42CFEACF050A0
:1003EA00010C8DF0740AA42CFDE435F0F608DBDE6E
:0303FA0074072263
:1003FD000202B6E86480F8E933E83360110460F076
:10040D00ED33EC337009E8FCE9FDEAFEEBFF220465
:10041D0060DED3EB9FEA9EE99DE8C2E78CF0C2F760
:10042D0095F0400CE8CCF8E9CDF9EACEFAEBCFFB2C
:10043D0012028185D0F05804700320D5B3E8047002
:10044D00075002B2D50202C092D5EC0460F7E4CC9D
:10045D00C0E0C398F8603B94186008400DD0E0FBF5
:10046D00020298E4FBFAC9FC8028E830E406E4C9EE
:10047D00FBE4CAFCE830E305E4C9CACBFCE8540749
:10048D006010F8C3E913F9EA13FAEB13FBEC13FC54
:10049D00D8F130F52FC3E49CFCEF9BFFEE9AFEEDF7
:1004AD0099FDD0E0FBEF4E4D4C701222DB030202A2
:1004BD00BDEC2CFCEF33FFEE33FEED33FDED30E7FD
:1004CD00EB020298EF2BFFEE3AFEED39FDD0E0FB8B
:1004DD0050130BBB00030202C0ED13FDEE13FEEF34
:0804ED0013FFEC13FC0202985E
:1004F5003F8000004120000042C80000447A00000F
:10050500461C400047C35000497424004B18968090
:100515004CBEBC205A0E1BCA6753C21C749DC5AE87
:10052500FB60065407601C2323120553EB54386007
:100535000912053F12054E120066ECF8EDF9EEFAC8
:10054500EFCB22EB12054E80F1543803241C9004A6
:10055500F5FE93FC0EEE93FD0EEE930ECE93FF2269
:100FF600021101E493A3F8E493A34003F68001F2FF
:1010060008DFF48029E493A3F85407240CC8C333FB
:10101600C4540F4420C8834004F456800146F6DFCA
:10102600E4800B010204081020408090123AE47E0E
:10103600019360BCA3FF543F30E509541FFEE493BF
:10104600A360010ECF54C025E060A840B8E493A386
:10105600FAE493A3F8E493A3C8C582C8CAC583CAB1
:10106600F0A3C8C582C8CAC583CADFE9DEE780BE69
:01128F00005E
:10056500BB010689828A83E0225002E722BBFE0294
:09057500E32289828A83E49322C7
:10057E00BB010CE58229F582E5833AF583E0225032
:10058E0006E92582F8E622BBFE06E92582F8E2227C
:0D059E00E58229F582E5833AF583E4932296
:1005AB00BB010689828A83F0225002F722BBFE012F
:0205BB00F32229
:1005BD00BC000BBE0029EF8DF084FFADF022E4CC22
:1005CD00F875F008EF2FFFEE33FEEC33FCEE9DECEB
:1005DD00984005FCEE9DFE0FD5F0E9E4CEFD22ED31
:1005ED00F8F5F0EE8420D21CFEADF075F008EF2F7B
:1005FD00FFED33FD4007985006D5F0F222C398FD6C
:05060D000FD5F0EA2208
:0E061200C3E49FFFE49EFEE49DFDE49CFC22F9
:10062000FAE6FB0808E6F925F0F618E6CA3AF622DB
:10063000D083D082F8E4937012740193700DA3A359
:1006400093F8740193F5828883E47374029368606D
:06065000EFA3A3A380DF6D
:10159C00EFB40A07740D1215A7740A309811A899A4
:1015AC00B8130CC2983098FDA899C298B811F630AF
:0715BC0099FDC299F5992287
:10065600E3F5F009E208B5F06D606B80F3E3F5F0C1
:1006660009E608B5F060605E80F387F009E608B534
:10067600F054605280F487F009E208B5F04860460D
:1006860080F488828C8387F009E0A3B5F038603661
:1006960080F488828C8387F009E493A3B5F0276001
:1006A6002580F388828C83E3F5F009E0A3B5F01684
:1006B600601480F388828C83E3F5F009E493A3B594
:1006C600F004600280F2020781808580E7808E80D8
:1006D600D2803C8015806C807E809B80B5808B802C
:1006E600A1804F8070803A02078D89828A83ECFA56
:1006F600E493F5F0A3C8C582C8CCC583CCE493A324
:10070600C8C582C8CCC583CCB5F070606E80E1895F
:10071600828A83E493F5F0A3E208B5F05E605C801C
:10072600F289828A83E0F5F0A3E608B5F04D604BC6
:1007360080F389828A83E0F5F0A3E208B5F03C6095
:100746003A80F389828A83E493F5F0A3E608B5F04C
:100756002A602880F2805389828A83ECFAE493F532
:10076600F0A3C8C582C8CCC583CCE0A3C8C582C8DF
:10077600CCC583CCB5F004600280E27FFFB5F00201
:100786000F2240027F012289828A83ECFAE0F5F08B
:10079600A3C8C582C8CCC583CCE0A3C8C582C8CCD3
:1007A600C583CCB5F0D560D380E389828A83ECFA21
:1007B600E0F5F0A3C8C582C8CCC583CCE493A3C832
:1007C600C582C8CCC583CCB5F0B160AF80E288F0F5
:1007D600ED2402B4040050A3F582EB2402B4040015
:0B07E600509923234582239006CF7317
:1007F100EF4E6012EF60010EEDBB010B89828A831F
:10080100F0A3DFFCDEFA2289F05007F709DFFCA92B
:0C081100F022BBFEFCF309DFFCA9F02282
:00000001FF
